{"abi":[{"type":"function","name":"balanceOf","inputs":[{"name":"","type":"address","internalType":"address"}],"outputs":[{"name":"","type":"uint256","internalType":"uint256"}],"stateMutability":"view"},{"type":"function","name":"burn","inputs":[{"name":"from","type":"address","internalType":"address"},{"name":"amount","type":"uint256","internalType":"uint256"}],"outputs":[],"stateMutability":"nonpayable"},{"type":"function","name":"mint","inputs":[{"name":"to","type":"address","internalType":"address"},{"name":"amount","type":"uint256","internalType":"uint256"}],"outputs":[],"stateMutability":"nonpayable"},{"type":"function","name":"totalSupply","inputs":[],"outputs":[{"name":"","type":"uint256","internalType":"uint256"}],"stateMutability":"view"}],"bytecode":{"object":"0x608060405234801561000f575f80fd5b506103b58061001d5f395ff3fe608060405234801561000f575f80fd5b506004361061004a575f3560e01c806318160ddd1461004e57806340c10f191461006c57806370a08231146100885780639dc29fac146100b8575b5f80fd5b6100566100d4565b60405161006391906101e2565b60405180910390f35b61008660048036038101906100819190610283565b6100d9565b005b6100a2600480360381019061009d91906102c1565b610147565b6040516100af91906101e2565b60405180910390f35b6100d260048036038101906100cd9190610283565b61015c565b005b5f5481565b8060015f8473ffffffffffffffffffffffffffffffffffffffff1673ffffffffffffffffffffffffffffffffffffffff1681526020019081526020015f205f8282546101259190610319565b92505081905550805f8082825461013c9190610319565b925050819055505050565b6001602052805f5260405f205f915090505481565b8060015f8473ffffffffffffffffffffffffffffffffffffffff1673ffffffffffffffffffffffffffffffffffffffff1681526020019081526020015f205f8282546101a8919061034c565b92505081905550805f808282546101bf919061034c565b925050819055505050565b5f819050919050565b6101dc816101ca565b82525050565b5f6020820190506101f55f8301846101d3565b92915050565b5f80fd5b5f73ffffffffffffffffffffffffffffffffffffffff82169050919050565b5f610228826101ff565b9050919050565b6102388161021e565b8114610242575f80fd5b50565b5f813590506102538161022f565b92915050565b610262816101ca565b811461026c575f80fd5b50565b5f8135905061027d81610259565b92915050565b5f8060408385031215610299576102986101fb565b5b5f6102a685828601610245565b92505060206102b78582860161026f565b9150509250929050565b5f602082840312156102d6576102d56101fb565b5b5f6102e384828501610245565b91505092915050565b7f4e487b71000000000000000000000000000000000000000000000000000000005f52601160045260245ffd5b5f610323826101ca565b915061032e836101ca565b9250828201905080821115610346576103456102ec565b5b92915050565b5f610356826101ca565b9150610361836101ca565b9250828203905081811115610379576103786102ec565b5b9291505056fea2646970667358221220ab7ab4cab6cac238e79a8738b87e71a9b23f4d26eef2f2a7b765215fe510f08464736f6c63430008140033","linkReferences":{}},"methodIdentifiers":{"balanceOf(address)":"70a08231","burn(address,uint256)":"9dc29fac","mint(address,uint256)":"40c10f19","totalSupply()":"18160ddd"},"id":20}