{"abi":[{"type":"constructor","inputs":[{"name":"t","type":"address","internalType":"address"}],"stateMutability":"nonpayable"},{"type":"function","name":"borrow","inputs":[{"name":"a","type":"uint256","internalType":"uint256"}],"outputs":[],"stateMutability":"nonpayable"},{"type":"function","name":"collateral","inputs":[{"name":"","type":"address","internalType":"address"}],"outputs":[{"name":"","type":"uint256","internalType":"uint256"}],"stateMutability":"view"},{"type":"function","name":"debt","inputs":[{"name":"","type":"address","internalType":"address"}],"outputs":[{"name":"","type":"uint256","internalType":"uint256"}],"stateMutability":"view"},{"type":"function","name":"deposit","inputs":[{"name":"a","type":"uint256","internalType":"uint256"}],"outputs":[],"stateMutability":"nonpayable"},{"type":"function","name":"liquidate","inputs":[{"name":"user","type":"address","internalType":"address"},{"name":"amount","type":"uint256","internalType":"uint256"}],"outputs":[],"stateMutability":"nonpayable"},{"type":"function","name":"repay","inputs":[{"name":"a","type":"uint256","internalType":"uint256"}],"outputs":[],"stateMutability":"nonpayable"},{"type":"function","name":"token","inputs":[],"outputs":[{"name":"","type":"address","internalType":"contract MyERC20"}],"stateMutability":"view"},{"type":"function","name":"withdraw","inputs":[{"name":"amount","type":"uint256","internalType":"uint256"}],"outputs":[],"stateMutability":"nonpayable"}],"bytecode":{"object":"0x608060405234801562000010575f80fd5b50604051620010c8380380620010c88339818101604052810190620000369190620000e1565b805f806101000a81548173ffffffffffffffffffffffffffffffffffffffff021916908373ffffffffffffffffffffffffffffffffffffffff1602179055505062000111565b5f80fd5b5f73ffffffffffffffffffffffffffffffffffffffff82169050919050565b5f620000ab8262000080565b9050919050565b620000bd816200009f565b8114620000c8575f80fd5b50565b5f81519050620000db81620000b2565b92915050565b5f60208284031215620000f957620000f86200007c565b5b5f6200010884828501620000cb565b91505092915050565b610fa9806200011f5f395ff3fe608060405234801561000f575f80fd5b5060043610610086575f3560e01c8063b6b55f2511610059578063b6b55f2514610122578063bcbaf4871461013e578063c5ebeaec1461015a578063fc0c546a1461017657610086565b80632e1a7d4d1461008a578063371fd8e6146100a65780639b6c56ec146100c2578063a5fdc5de146100f2575b5f80fd5b6100a4600480360381019061009f9190610aa5565b610194565b005b6100c060048036038101906100bb9190610aa5565b6103cd565b005b6100dc60048036038101906100d79190610b2a565b6104c0565b6040516100e99190610b64565b60405180910390f35b61010c60048036038101906101079190610b2a565b6104d5565b6040516101199190610b64565b60405180910390f35b61013c60048036038101906101379190610aa5565b6104ea565b005b61015860048036038101906101539190610b7d565b6105dd565b005b610174600480360381019061016f9190610aa5565b6108b1565b005b61017e610a4b565b60405161018b9190610c16565b60405180910390f35b8060015f3373ffffffffffffffffffffffffffffffffffffffff1673ffffffffffffffffffffffffffffffffffffffff1681526020019081526020015f20541015610214576040517f08c379a000000000000000000000000000000000000000000000000000000000815260040161020b90610c89565b60405180910390fd5b60025f3373ffffffffffffffffffffffffffffffffffffffff1673ffffffffffffffffffffffffffffffffffffffff1681526020019081526020015f20548160015f3373ffffffffffffffffffffffffffffffffffffffff1673ffffffffffffffffffffffffffffffffffffffff1681526020019081526020015f205461029b9190610cd4565b10156102dc576040517f08c379a00000000000000000000000000000000000000000000000000000000081526004016102d390610d51565b60405180910390fd5b8060015f3373ffffffffffffffffffffffffffffffffffffffff1673ffffffffffffffffffffffffffffffffffffffff1681526020019081526020015f205f8282546103289190610cd4565b925050819055505f8054906101000a900473ffffffffffffffffffffffffffffffffffffffff1673ffffffffffffffffffffffffffffffffffffffff1663a9059cbb33836040518363ffffffff1660e01b8152600401610389929190610d7e565b6020604051808303815f875af11580156103a5573d5f803e3d5ffd5b505050506040513d601f19601f820116820180604052508101906103c99190610dda565b5050565b5f8054906101000a900473ffffffffffffffffffffffffffffffffffffffff1673ffffffffffffffffffffffffffffffffffffffff166323b872dd3330846040518463ffffffff1660e01b815260040161042993929190610e05565b6020604051808303815f875af1158015610445573d5f803e3d5ffd5b505050506040513d601f19601f820116820180604052508101906104699190610dda565b508060025f3373ffffffffffffffffffffffffffffffffffffffff1673ffffffffffffffffffffffffffffffffffffffff1681526020019081526020015f205f8282546104b69190610cd4565b9250508190555050565b6002602052805f5260405f205f915090505481565b6001602052805f5260405f205f915090505481565b5f8054906101000a900473ffffffffffffffffffffffffffffffffffffffff1673ffffffffffffffffffffffffffffffffffffffff166323b872dd3330846040518463ffffffff1660e01b815260040161054693929190610e05565b6020604051808303815f875af1158015610562573d5f803e3d5ffd5b505050506040513d601f19601f820116820180604052508101906105869190610dda565b508060015f3373ffffffffffffffffffffffffffffffffffffffff1673ffffffffffffffffffffffffffffffffffffffff1681526020019081526020015f205f8282546105d39190610e3a565b9250508190555050565b5f60025f8473ffffffffffffffffffffffffffffffffffffffff1673ffffffffffffffffffffffffffffffffffffffff1681526020019081526020015f20541161065c576040517f08c379a000000000000000000000000000000000000000000000000000000000815260040161065390610eb7565b60405180910390fd5b5f81905060025f8473ffffffffffffffffffffffffffffffffffffffff1673ffffffffffffffffffffffffffffffffffffffff1681526020019081526020015f20548111156106e65760025f8473ffffffffffffffffffffffffffffffffffffffff1673ffffffffffffffffffffffffffffffffffffffff1681526020019081526020015f205490505b8060025f8573ffffffffffffffffffffffffffffffffffffffff1673ffffffffffffffffffffffffffffffffffffffff1681526020019081526020015f205f8282546107329190610cd4565b925050819055505f8190508060015f8673ffffffffffffffffffffffffffffffffffffffff1673ffffffffffffffffffffffffffffffffffffffff1681526020019081526020015f205410156107bd576040517f08c379a00000000000000000000000000000000000000000000000000000000081526004016107b490610c89565b60405180910390fd5b8060015f8673ffffffffffffffffffffffffffffffffffffffff1673ffffffffffffffffffffffffffffffffffffffff1681526020019081526020015f205f8282546108099190610cd4565b925050819055505f8054906101000a900473ffffffffffffffffffffffffffffffffffffffff1673ffffffffffffffffffffffffffffffffffffffff1663a9059cbb33836040518363ffffffff1660e01b815260040161086a929190610d7e565b6020604051808303815f875af1158015610886573d5f803e3d5ffd5b505050506040513d601f19601f820116820180604052508101906108aa9190610dda565b5050505050565b6064604b60015f3373ffffffffffffffffffffffffffffffffffffffff1673ffffffffffffffffffffffffffffffffffffffff1681526020019081526020015f20546108fd9190610ed5565b6109079190610f43565b8160025f3373ffffffffffffffffffffffffffffffffffffffff1673ffffffffffffffffffffffffffffffffffffffff1681526020019081526020015f20546109509190610e3a565b111561095a575f80fd5b8060025f3373ffffffffffffffffffffffffffffffffffffffff1673ffffffffffffffffffffffffffffffffffffffff1681526020019081526020015f205f8282546109a69190610e3a565b925050819055505f8054906101000a900473ffffffffffffffffffffffffffffffffffffffff1673ffffffffffffffffffffffffffffffffffffffff1663a9059cbb33836040518363ffffffff1660e01b8152600401610a07929190610d7e565b6020604051808303815f875af1158015610a23573d5f803e3d5ffd5b505050506040513d601f19601f82011682018060405250810190610a479190610dda565b5050565b5f8054906101000a900473ffffffffffffffffffffffffffffffffffffffff1681565b5f80fd5b5f819050919050565b610a8481610a72565b8114610a8e575f80fd5b50565b5f81359050610a9f81610a7b565b92915050565b5f60208284031215610aba57610ab9610a6e565b5b5f610ac784828501610a91565b91505092915050565b5f73ffffffffffffffffffffffffffffffffffffffff82169050919050565b5f610af982610ad0565b9050919050565b610b0981610aef565b8114610b13575f80fd5b50565b5f81359050610b2481610b00565b92915050565b5f60208284031215610b3f57610b3e610a6e565b5b5f610b4c84828501610b16565b91505092915050565b610b5e81610a72565b82525050565b5f602082019050610b775f830184610b55565b92915050565b5f8060408385031215610b9357610b92610a6e565b5b5f610ba085828601610b16565b9250506020610bb185828601610a91565b9150509250929050565b5f819050919050565b5f610bde610bd9610bd484610ad0565b610bbb565b610ad0565b9050919050565b5f610bef82610bc4565b9050919050565b5f610c0082610be5565b9050919050565b610c1081610bf6565b82525050565b5f602082019050610c295f830184610c07565b92915050565b5f82825260208201905092915050565b7f6e6f7420656e6f75676820636f6c6c61746572616c00000000000000000000005f82015250565b5f610c73601583610c2f565b9150610c7e82610c3f565b602082019050919050565b5f6020820190508181035f830152610ca081610c67565b9050919050565b7f4e487b71000000000000000000000000000000000000000000000000000000005f52601160045260245ffd5b5f610cde82610a72565b9150610ce983610a72565b9250828203905081811115610d0157610d00610ca7565b5b92915050565b7f756e7361666500000000000000000000000000000000000000000000000000005f82015250565b5f610d3b600683610c2f565b9150610d4682610d07565b602082019050919050565b5f6020820190508181035f830152610d6881610d2f565b9050919050565b610d7881610aef565b82525050565b5f604082019050610d915f830185610d6f565b610d9e6020830184610b55565b9392505050565b5f8115159050919050565b610db981610da5565b8114610dc3575f80fd5b50565b5f81519050610dd481610db0565b92915050565b5f60208284031215610def57610dee610a6e565b5b5f610dfc84828501610dc6565b91505092915050565b5f606082019050610e185f830186610d6f565b610e256020830185610d6f565b610e326040830184610b55565b949350505050565b5f610e4482610a72565b9150610e4f83610a72565b9250828201905080821115610e6757610e66610ca7565b5b92915050565b7f6e6f2064656274000000000000000000000000000000000000000000000000005f82015250565b5f610ea1600783610c2f565b9150610eac82610e6d565b602082019050919050565b5f6020820190508181035f830152610ece81610e95565b9050919050565b5f610edf82610a72565b9150610eea83610a72565b9250828202610ef881610a72565b91508282048414831517610f0f57610f0e610ca7565b5b5092915050565b7f4e487b71000000000000000000000000000000000000000000000000000000005f52601260045260245ffd5b5f610f4d82610a72565b9150610f5883610a72565b925082610f6857610f67610f16565b5b82820490509291505056fea26469706673582212205ba140c73ece1678a6cc0d2702e35c10f1eac5f136afd78e061a292c7cd8b4be64736f6c63430008140033","linkReferences":{}},"methodIdentifiers":{"borrow(uint256)":"c5ebeaec","collateral(address)":"a5fdc5de","debt(address)":"9b6c56ec","deposit(uint256)":"b6b55f25","liquidate(address,uint256)":"bcbaf487","repay(uint256)":"371fd8e6","token()":"fc0c546a","withdraw(uint256)":"2e1a7d4d"},"id":21}