{"abi":[{"type":"constructor","inputs":[{"name":"a","type":"address","internalType":"address"},{"name":"b","type":"address","internalType":"address"}],"stateMutability":"nonpayable"},{"type":"function","name":"addLiquidity","inputs":[{"name":"a","type":"uint256","internalType":"uint256"},{"name":"b","type":"uint256","internalType":"uint256"}],"outputs":[],"stateMutability":"nonpayable"},{"type":"function","name":"getAmountOut","inputs":[{"name":"amountIn","type":"uint256","internalType":"uint256"},{"name":"rIn","type":"uint256","internalType":"uint256"},{"name":"rOut","type":"uint256","internalType":"uint256"}],"outputs":[{"name":"","type":"uint256","internalType":"uint256"}],"stateMutability":"pure"},{"type":"function","name":"lpToken","inputs":[],"outputs":[{"name":"","type":"address","internalType":"contract LPToken"}],"stateMutability":"view"},{"type":"function","name":"removeLiquidity","inputs":[{"name":"liquidity","type":"uint256","internalType":"uint256"}],"outputs":[],"stateMutability":"nonpayable"},{"type":"function","name":"reserveA","inputs":[],"outputs":[{"name":"","type":"uint256","internalType":"uint256"}],"stateMutability":"view"},{"type":"function","name":"reserveB","inputs":[],"outputs":[{"name":"","type":"uint256","internalType":"uint256"}],"stateMutability":"view"},{"type":"function","name":"swapAforB","inputs":[{"name":"amountIn","type":"uint256","internalType":"uint256"},{"name":"minOut","type":"uint256","internalType":"uint256"}],"outputs":[{"name":"out","type":"uint256","internalType":"uint256"}],"stateMutability":"nonpayable"},{"type":"function","name":"tokenA","inputs":[],"outputs":[{"name":"","type":"address","internalType":"contract MyERC20"}],"stateMutability":"view"},{"type":"function","name":"tokenB","inputs":[],"outputs":[{"name":"","type":"address","internalType":"contract MyERC20"}],"stateMutability":"view"}],"bytecode":{"object":"0x608060405234801562000010575f80fd5b506040516200145f3803806200145f833981810160405281019062000036919062000198565b815f806101000a81548173ffffffffffffffffffffffffffffffffffffffff021916908373ffffffffffffffffffffffffffffffffffffffff1602179055508060015f6101000a81548173ffffffffffffffffffffffffffffffffffffffff021916908373ffffffffffffffffffffffffffffffffffffffff160217905550604051620000c39062000125565b604051809103905ff080158015620000dd573d5f803e3d5ffd5b5060025f6101000a81548173ffffffffffffffffffffffffffffffffffffffff021916908373ffffffffffffffffffffffffffffffffffffffff1602179055505050620001dd565b6103d2806200108d83390190565b5f80fd5b5f73ffffffffffffffffffffffffffffffffffffffff82169050919050565b5f620001628262000137565b9050919050565b620001748162000156565b81146200017f575f80fd5b50565b5f81519050620001928162000169565b92915050565b5f8060408385031215620001b157620001b062000133565b5b5f620001c08582860162000182565b9250506020620001d38582860162000182565b9150509250929050565b610ea280620001eb5f395ff3fe608060405234801561000f575f80fd5b5060043610610091575f3560e01c80635f64b55b116100645780635f64b55b146101315780635fcbd2851461014f5780639c8f9f231461016d5780639cd441da14610189578063dc5fa6c5146101a557610091565b8063054d50d4146100955780630fc63d10146100c5578063140e6247146100e357806319e36f3b14610113575b5f80fd5b6100af60048036038101906100aa91906109fb565b6101c3565b6040516100bc9190610a5a565b60405180910390f35b6100cd61020e565b6040516100da9190610aed565b60405180910390f35b6100fd60048036038101906100f89190610b06565b610231565b60405161010a9190610a5a565b60405180910390f35b61011b61042d565b6040516101289190610a5a565b60405180910390f35b610139610433565b6040516101469190610aed565b60405180910390f35b610157610458565b6040516101649190610b64565b60405180910390f35b61018760048036038101906101829190610b7d565b61047d565b005b6101a3600480360381019061019e9190610b06565b6107c5565b005b6101ad6109be565b6040516101ba9190610a5a565b60405180910390f35b5f806103e5856101d39190610bd5565b9050806103e8856101e49190610bd5565b6101ee9190610c16565b83826101fa9190610bd5565b6102049190610c76565b9150509392505050565b5f8054906101000a900473ffffffffffffffffffffffffffffffffffffffff1681565b5f805f9054906101000a900473ffffffffffffffffffffffffffffffffffffffff1673ffffffffffffffffffffffffffffffffffffffff166323b872dd3330866040518463ffffffff1660e01b815260040161028f93929190610cc6565b6020604051808303815f875af11580156102ab573d5f803e3d5ffd5b505050506040513d601f19601f820116820180604052508101906102cf9190610d30565b505f6103e86103e5856102e29190610bd5565b6102ec9190610c76565b9050806003546102fc9190610c16565b6004548261030a9190610bd5565b6103149190610c76565b915082821015610359576040517f08c379a000000000000000000000000000000000000000000000000000000000815260040161035090610db5565b60405180910390fd5b8360035f82825461036a9190610c16565b925050819055508160045f8282546103829190610dd3565b9250508190555060015f9054906101000a900473ffffffffffffffffffffffffffffffffffffffff1673ffffffffffffffffffffffffffffffffffffffff1663a9059cbb33846040518363ffffffff1660e01b81526004016103e5929190610e06565b6020604051808303815f875af1158015610401573d5f803e3d5ffd5b505050506040513d601f19601f820116820180604052508101906104259190610d30565b505092915050565b60045481565b60015f9054906101000a900473ffffffffffffffffffffffffffffffffffffffff1681565b60025f9054906101000a900473ffffffffffffffffffffffffffffffffffffffff1681565b5f60025f9054906101000a900473ffffffffffffffffffffffffffffffffffffffff1673ffffffffffffffffffffffffffffffffffffffff166318160ddd6040518163ffffffff1660e01b8152600401602060405180830381865afa1580156104e8573d5f803e3d5ffd5b505050506040513d601f19601f8201168201806040525081019061050c9190610e41565b6003548361051a9190610bd5565b6105249190610c76565b90505f60025f9054906101000a900473ffffffffffffffffffffffffffffffffffffffff1673ffffffffffffffffffffffffffffffffffffffff166318160ddd6040518163ffffffff1660e01b8152600401602060405180830381865afa158015610591573d5f803e3d5ffd5b505050506040513d601f19601f820116820180604052508101906105b59190610e41565b600454846105c39190610bd5565b6105cd9190610c76565b905060025f9054906101000a900473ffffffffffffffffffffffffffffffffffffffff1673ffffffffffffffffffffffffffffffffffffffff16639dc29fac33856040518363ffffffff1660e01b815260040161062b929190610e06565b5f604051808303815f87803b158015610642575f80fd5b505af1158015610654573d5f803e3d5ffd5b505050508160035f8282546106699190610dd3565b925050819055508060045f8282546106819190610dd3565b925050819055505f8054906101000a900473ffffffffffffffffffffffffffffffffffffffff1673ffffffffffffffffffffffffffffffffffffffff1663a9059cbb33846040518363ffffffff1660e01b81526004016106e2929190610e06565b6020604051808303815f875af11580156106fe573d5f803e3d5ffd5b505050506040513d601f19601f820116820180604052508101906107229190610d30565b5060015f9054906101000a900473ffffffffffffffffffffffffffffffffffffffff1673ffffffffffffffffffffffffffffffffffffffff1663a9059cbb33836040518363ffffffff1660e01b815260040161077f929190610e06565b6020604051808303815f875af115801561079b573d5f803e3d5ffd5b505050506040513d601f19601f820116820180604052508101906107bf9190610d30565b50505050565b5f8054906101000a900473ffffffffffffffffffffffffffffffffffffffff1673ffffffffffffffffffffffffffffffffffffffff166323b872dd3330856040518463ffffffff1660e01b815260040161082193929190610cc6565b6020604051808303815f875af115801561083d573d5f803e3d5ffd5b505050506040513d601f19601f820116820180604052508101906108619190610d30565b5060015f9054906101000a900473ffffffffffffffffffffffffffffffffffffffff1673ffffffffffffffffffffffffffffffffffffffff166323b872dd3330846040518463ffffffff1660e01b81526004016108c093929190610cc6565b6020604051808303815f875af11580156108dc573d5f803e3d5ffd5b505050506040513d601f19601f820116820180604052508101906109009190610d30565b5060025f9054906101000a900473ffffffffffffffffffffffffffffffffffffffff1673ffffffffffffffffffffffffffffffffffffffff166340c10f1933846040518363ffffffff1660e01b815260040161095d929190610e06565b5f604051808303815f87803b158015610974575f80fd5b505af1158015610986573d5f803e3d5ffd5b505050508160035f82825461099b9190610c16565b925050819055508060045f8282546109b39190610c16565b925050819055505050565b60035481565b5f80fd5b5f819050919050565b6109da816109c8565b81146109e4575f80fd5b50565b5f813590506109f5816109d1565b92915050565b5f805f60608486031215610a1257610a116109c4565b5b5f610a1f868287016109e7565b9350506020610a30868287016109e7565b9250506040610a41868287016109e7565b9150509250925092565b610a54816109c8565b82525050565b5f602082019050610a6d5f830184610a4b565b92915050565b5f73ffffffffffffffffffffffffffffffffffffffff82169050919050565b5f819050919050565b5f610ab5610ab0610aab84610a73565b610a92565b610a73565b9050919050565b5f610ac682610a9b565b9050919050565b5f610ad782610abc565b9050919050565b610ae781610acd565b82525050565b5f602082019050610b005f830184610ade565b92915050565b5f8060408385031215610b1c57610b1b6109c4565b5b5f610b29858286016109e7565b9250506020610b3a858286016109e7565b9150509250929050565b5f610b4e82610abc565b9050919050565b610b5e81610b44565b82525050565b5f602082019050610b775f830184610b55565b92915050565b5f60208284031215610b9257610b916109c4565b5b5f610b9f848285016109e7565b91505092915050565b7f4e487b71000000000000000000000000000000000000000000000000000000005f52601160045260245ffd5b5f610bdf826109c8565b9150610bea836109c8565b9250828202610bf8816109c8565b91508282048414831517610c0f57610c0e610ba8565b5b5092915050565b5f610c20826109c8565b9150610c2b836109c8565b9250828201905080821115610c4357610c42610ba8565b5b92915050565b7f4e487b71000000000000000000000000000000000000000000000000000000005f52601260045260245ffd5b5f610c80826109c8565b9150610c8b836109c8565b925082610c9b57610c9a610c49565b5b828204905092915050565b5f610cb082610a73565b9050919050565b610cc081610ca6565b82525050565b5f606082019050610cd95f830186610cb7565b610ce66020830185610cb7565b610cf36040830184610a4b565b949350505050565b5f8115159050919050565b610d0f81610cfb565b8114610d19575f80fd5b50565b5f81519050610d2a81610d06565b92915050565b5f60208284031215610d4557610d446109c4565b5b5f610d5284828501610d1c565b91505092915050565b5f82825260208201905092915050565b7f736c6970706167650000000000000000000000000000000000000000000000005f82015250565b5f610d9f600883610d5b565b9150610daa82610d6b565b602082019050919050565b5f6020820190508181035f830152610dcc81610d93565b9050919050565b5f610ddd826109c8565b9150610de8836109c8565b9250828203905081811115610e0057610dff610ba8565b5b92915050565b5f604082019050610e195f830185610cb7565b610e266020830184610a4b565b9392505050565b5f81519050610e3b816109d1565b92915050565b5f60208284031215610e5657610e556109c4565b5b5f610e6384828501610e2d565b9150509291505056fea264697066735822122074d1a9969c2b4a7c684cde74e9ffeb1c30b2d848ea89c2395f9c301acce7849564736f6c63430008140033608060405234801561000f575f80fd5b506103b58061001d5f395ff3fe608060405234801561000f575f80fd5b506004361061004a575f3560e01c806318160ddd1461004e57806340c10f191461006c57806370a08231146100885780639dc29fac146100b8575b5f80fd5b6100566100d4565b60405161006391906101e2565b60405180910390f35b61008660048036038101906100819190610283565b6100d9565b005b6100a2600480360381019061009d91906102c1565b610147565b6040516100af91906101e2565b60405180910390f35b6100d260048036038101906100cd9190610283565b61015c565b005b5f5481565b8060015f8473ffffffffffffffffffffffffffffffffffffffff1673ffffffffffffffffffffffffffffffffffffffff1681526020019081526020015f205f8282546101259190610319565b92505081905550805f8082825461013c9190610319565b925050819055505050565b6001602052805f5260405f205f915090505481565b8060015f8473ffffffffffffffffffffffffffffffffffffffff1673ffffffffffffffffffffffffffffffffffffffff1681526020019081526020015f205f8282546101a8919061034c565b92505081905550805f808282546101bf919061034c565b925050819055505050565b5f819050919050565b6101dc816101ca565b82525050565b5f6020820190506101f55f8301846101d3565b92915050565b5f80fd5b5f73ffffffffffffffffffffffffffffffffffffffff82169050919050565b5f610228826101ff565b9050919050565b6102388161021e565b8114610242575f80fd5b50565b5f813590506102538161022f565b92915050565b610262816101ca565b811461026c575f80fd5b50565b5f8135905061027d81610259565b92915050565b5f8060408385031215610299576102986101fb565b5b5f6102a685828601610245565b92505060206102b78582860161026f565b9150509250929050565b5f602082840312156102d6576102d56101fb565b5b5f6102e384828501610245565b91505092915050565b7f4e487b71000000000000000000000000000000000000000000000000000000005f52601160045260245ffd5b5f610323826101ca565b915061032e836101ca565b9250828201905080821115610346576103456102ec565b5b92915050565b5f610356826101ca565b9150610361836101ca565b9250828203905081811115610379576103786102ec565b5b9291505056fea2646970667358221220ab7ab4cab6cac238e79a8738b87e71a9b23f4d26eef2f2a7b765215fe510f08464736f6c63430008140033","linkReferences":{}},"methodIdentifiers":{"addLiquidity(uint256,uint256)":"9cd441da","getAmountOut(uint256,uint256,uint256)":"054d50d4","lpToken()":"5fcbd285","removeLiquidity(uint256)":"9c8f9f23","reserveA()":"dc5fa6c5","reserveB()":"19e36f3b","swapAforB(uint256,uint256)":"140e6247","tokenA()":"0fc63d10","tokenB()":"5f64b55b"},"id":19}